:020000040800F2
:1000000000500020D10500086D0500086F050008AC
:100010007105000873050008750500080000000060
:10002000000000000000000000000000770500084C
:1000300079050008000000007B0500087D05000828
:100040001906000819060008190600081906000814
:100050001906000819060008190600081906000804
:1000600019060008190600081906000819060008F4
:1000700019060008190600081906000819060008E4
:1000800019060008190600081906000819060008D4
:100090008505000819060008190600081906000859
:1000A00019060008190600081906000819060008B4
:1000B00019060008190600081906000819060008A4
:1000C0001906000819060008190600081906000894
:1000D0001906000819060008190600081906000884
:1000E000190600081906000819060008000000009B
:1000F0000000000000000000000000000000000000
:0C01000000000000000000005FF808F1A3
:10010C0010B5054C237833B9044B13B10448AFF345
:10011C0000800123237010BDAC05002000000000FE
:10012C00BC47000808B5034B1BB103490348AFF3A8
:10013C00008008BD00000000B0050020BC4700088E
:10014C00844641EA000313F0030349D1403A23D318
:10015C000B6803604B6843608B688360CB68C3603B
:10016C000B6903614B6943618B698361CB69C36123
:10017C000B6A03624B6A43628B6A8362CB6AC3620B
:10018C000B6B03634B6B43638B6B8363CB6BC363F3
:10019C0040304031403ADBD230320BD30B68036035
:1001AC004B6843608B688360CB68C3601030103140
:1001BC00103AF3D20C3205D351F8043B40F8043B0F
:1001CC00043AF9D2043208D0D2071CBF11F8013B13
:1001DC0000F8013B01D30B8803806046704700BFD9
:1001EC00082A13D38B07B1D010F00303AED0C3F1A0
:1001FC000403D21ADB071CBF11F8013B00F8013BCA
:10020C00A4D331F8023B20F8023B9FE7043AD9D340
:10021C00013A11F8013B00F8013BF9D20B7803705D
:10022C004B7843708B788370604670472DE9F041B2
:10023C0088B000240494059406940794264B9A697C
:10024C0042F010029A619A6902F010020092009A30
:10025C009A6942F020029A619A6902F02002019296
:10026C00019A9A6942F008029A619A6902F00802AE
:10027C000292029A9A6942F004029A619B6903F015
:10028C0004030393039BDFF8548022464FF4005180
:10029C00404600F09FFD124D22464FF480612846E7
:1002AC0000F098FD4FF40053049301270597069432
:1002BC000226079604A9404600F07AFC4FF48063AE
:1002CC00049305970694079604A9284600F070FC41
:1002DC0008B0BDE8F08100BF0010024000100140E2
:1002EC00000C014070B505460E46002408E04FF4A2
:1002FC000051054800F074FD304600F0D3F901348C
:10030C00A542F4DC70BD00BF0010014072B6FEE7E0
:10031C0008B50E480E4B03600C2343604FF080432E
:10032C0083600023C3604FF4803202614FF40012EB
:10033C004261037643768376C3760377437700F086
:10034C00C5F900B908BDFFF7E1FF00BFF4050020B7
:10035C000064004000B595B0282200210DEB02008E
:10036C0004F03AF900230593069307930893099335
:10037C00019302930393049301220A924FF4803366
:10038C000B934FF400310C910E92022211921293A6
:10039C004FF4E01313930AA801F0F8FCC0B90F2333
:1003AC00059302210691002307934FF48062089273
:1003BC00099305A801F030FF60B9102301930023C5
:1003CC00049301A801F0DEFF30B915B05DF804FB11
:1003DC00FFF79CFFFFF79AFFFFF798FF10B592B05D
:1003EC0000F03CF9FFF7B6FFFFF720FF03F09CFE8F
:1003FC00FFF78EFF254800F00FFA24E0662B08D19A
:10040C0064210A20FFF76EFF03E064210320FFF74D
:10041C0069FF00230BE064210520FFF763FFF8E779
:10042C00692103F148026A4402F8441C01331F2B72
:10043C0004DC13F0010FF3D06621F2E7102201A9BE
:10044C000A2000F0A6F8124B1B78012BFBD1104BA5
:10045C0000221A700DF1240C0E4C0FCCACE80F00DE
:10046C000FCCACE80F0023688CF800309DF82430DA
:10047C00412BD0D0C2D8012BC7D0022BC9D14FF4FD
:10048C00FA710320FFF72EFFC3E700BFF40500202D
:10049C00F0050020C805002082B00A4B9A6942F092
:1004AC0001029A619A6902F001020092009ADA69DB
:1004BC0042F08052DA61DB6903F080530193019BB7
:1004CC0002B070470010024010B586B000230293B2
:1004DC0003930493059302681E4B9A4201D006B015
:1004EC0010BD03F5D633DA6942F00072DA61DA69CD
:1004FC0002F000720092009A9A6942F008029A6126
:10050C009B6903F008030193019B4FF480730293E2
:10051C00114C02A9204600F04BFB4FF400730293E0
:10052C00022303930323059302A9204600F040FB0A
:10053C000A4A536823F4C04343F0E06343F4804316
:10054C00536000221146142000F0D8FA142000F059
:10055C000DFBC4E700640040000C014000000140AA
:10056C00FEE7FEE7FEE7FEE7FEE7704770477047E1
:10057C0008B500F085F808BD08B5034800F087F908
:10058C00024801F0A9F908BDF4050020680B002011
:10059C00704730B58BB00D4614468DF80400202200
:1005AC0000210DF1050004F017F8224629460DF143
:1005BC000500FFF7C5FD611C01A803F019FE0BB087
:1005CC0030BD00000C480D490D4A002302E0D45800
:1005DC00C4500433C4188C42F9D30A4A0A4C002381
:1005EC0001E013600432A242FBD3FFF7D1FF03F00A
:1005FC00CFFFFFF7F3FE704700000020AC05002092
:10060C0034480008AC05002078100020FEE70000FC
:10061C0010B504460E4B18784FF47A73B3FBF0F315
:10062C000C4A1068B0FBF3F000F0AEFA68B90F2C6E
:10063C0001D901200AE0002221464FF0FF3000F0E2
:10064C005DFA054B1C60002000E0012010BD00BFCE
:10065C0004000020000000200800002008B5074A14
:10066C00136843F010031360032000F035FA0F20D9
:10067C00FFF7CEFFFFF710FF002008BD002002405F
:10068C00034A1168034B1B780B441360704700BF7F
:10069C001C06002004000020014B1868704700BFA6
:1006AC001C06002038B50446FFF7F6FF0546B4F1EA
:1006BC00FF3F02D0044B1B781C44FFF7EDFF401B9F
:1006CC00A042FAD338BD00BF04000020002800F07F
:1006DC00A18038B5044690F82030D3B12268136855
:1006EC0043F001031360FFF7D7FF054623685A68F0
:1006FC0012F0010F10D1FFF7CFFF401B0A28F5D9DC
:10070C00636A43F400336362052384F820300120CC
:10071C0038BDFFF7D9FEE1E71A6822F002021A6031
:10072C00FFF7BAFF054623685A6812F0020F0DD086
:10073C00FFF7B2FF401B0A28F5D9636A43F4003374
:10074C006362052384F820300120E1E7227E012A30
:10075C003DD01A6822F080021A60637E012B3BD0D8
:10076C002268136823F040031360A37E012B39D059
:10077C002268136823F020031360E37E012B37D02B
:10078C002268136843F010031360237F012B35D0CC
:10079C002268136823F008031360637F012B33D0A6
:1007AC002268136823F004031360A368E268134300
:1007BC0022691343626913436268013A2168134347
:1007CC00CB6100206062012384F82030A0E71A6816
:1007DC0042F080021A60C0E72268136843F04003BD
:1007EC001360C2E72268136843F020031360C4E768
:1007FC002268136823F010031360C6E7226813689D
:10080C0043F008031360C8E72268136843F004033D
:10081C001360CAE70120704770B5044690F8205069
:10082C00EDB2012D06D0436A43F400234362012547
:10083C00284670BD022380F820300268136823F02C
:10084C0001031360FFF728FF064623685B6813F06B
:10085C00010F0CD0FFF720FF831B0A2BF5D9636A1D
:10086C0043F400336362052384F82030E0E700256D
:10087C006562DDE770477047704770477047704797
:10088C0070477047704770477047704770472DE945
:10089C00F84F054603685C69D3F804809F68D3F869
:1008AC000CB0D3F810A0D3F8189014F001063BD07C
:1008BC0017F0010616D001229A6017F0020F08D12A
:1008CC0017F0040F0CD117F0080606D04FF4805621
:1008DC0008E0FFF7CFFF002604E0FFF7CEFF01E0B2
:1008EC004FF4006617F4807F0DD02B684FF48072A4
:1008FC009A6017F4007F40F0868017F4806F00F048
:10090C00868046F4005617F4803F0DD02B684FF4C8
:10091C0080329A6017F4003F40F0838017F4802FE8
:10092C0000F0838046F4004614F0080F07D01BF04B
:10093C00100F04D046F400762B681022DA6014F005
:10094C00040F02D01BF0080F79D114F0020F04D061
:10095C002B68DB6813F0030F78D114F0400F07D02D
:10096C001AF0100F04D046F480662B6810221A611E
:10097C0014F0200F02D01AF0080F6BD114F0100FE6
:10098C0004D02B681B6913F0030F6AD114F4003FD9
:10099C0002D018F0100F68D114F4803F02D018F078
:1009AC00080F69D114F4004F7AD018F0040F74D0EA
:1009BC0014F4807F04D019F0010F01D046F0010629
:1009CC0014F4007F04D019F0020F01D046F0020697
:1009DC0014F4806F04D019F0040F01D046F0040613
:1009EC0014F4006F59D019F0700956D0B9F1400FBA
:1009FC0065D058D8B9F1200F5ED0B9F1300F42D183
:100A0C0046F0200644E02846FFF735FF7BE717F455
:100A1C00006F02D046F4804675E72846FFF72EFF9C
:100A2C0071E72846FFF728FF7EE717F4002F02D066
:100A3C0046F4803678E72846FFF721FF74E72B68E9
:100A4C000822DA602846FFF71CFF7EE72846FFF7EE
:100A5C0017FF82E72B6808221A612846FFF713FF5D
:100A6C008CE72846FFF70EFF90E72B6810225A60A0
:100A7C002846FFF709FF8FE72B6808225A602846A3
:100A8C00FFF703FF8EE7B9F1100F01D146F008060E
:100A9C002A68936923F0700393612B6804225A60CF
:100AAC009EB9BDE8F88FB9F1500F0BD0B9F1600FBA
:100ABC00EED146F48076EBE746F01006E8E746F018
:100ACC004006E5E746F08006E2E76B6A1E436E627D
:100ADC002846FFF7DBFEE4E7074AD36823F4E0631C
:100AEC001B041B0C000200F4E060034343F0BF63E3
:100AFC0043F40033D360704700ED00E000B5194BB0
:100B0C00DB68C3F30223C3F1070CBCF1040F28BF4D
:100B1C004FF0040C03F1040EBEF1060F18D9033B81
:100B2C004FF0FF3E0EFA0CFC21EA0C0199400EFA34
:100B3C0003F322EA0303194300280BDB0901C9B2B2
:100B4C0000F1604000F5614080F800135DF804FB93
:100B5C000023E5E700F00F000901C9B2024B19545C
:100B6C00F4E700BF00ED00E014ED00E0002807DB27
:100B7C0000F01F02400901239340024A42F8203042
:100B8C00704700BF00E100E00138B0F1807F0BD26C
:100B9C004FF0E0235861054AF02182F82310002021
:100BAC00986107221A6170470120704700ED00E040
:100BBC0070B582B00024A446A6E0804DAA4210D0A5
:100BCC0007D97F4DAA420CD005F58035AA4208D032
:100BDC0013E0A5F58015AA4203D005F57025AA42AD
:100BEC0007D18A68002A58D0012A51D043610824C1
:100BFC0003E0A5F58015AA42F3D0BEF1FF0F4ED845
:100C0C000646BEF1FF0F4CD84FEA8C0233680F2515
:100C1C00954023EA050304FA02F2134333604B6850
:100C2C0013F0805F6ED0674B9A6942F001029A61B3
:100C3C009B6903F001030193019B4FEA9C02951CF5
:100C4C00614B53F825600CF003039D000F23AB4060
:100C5C0026EA03065D4B984229D003F5806398423F
:100C6C0000F08E8003F58063984200F08B8003F5D2
:100C7C008063984219D004231AE0CC68BDE7CC6895
:100C8C000434BAE7CC680834B7E7CC680C34B4E762
:100C9C0003610824B1E70024AFE70424ADE7061D87
:100CAC00AFE7ACF108029200B0E7032300E00023A9
:100CBC00AB4033430232444D45F822304B6813F4B9
:100CCC00803F61D0424A136843EA0E0313604B68BD
:100CDC0013F4003F5ED03E4A536843EA0E03536060
:100CEC004B6813F4801F5BD0394A936843EA0E03B8
:100CFC0093604B6813F4001F58D0354AD36843EA0D
:100D0C000E03D3600CF1010C0A6832FA0CF353D0C9
:100D1C00012303FA0CF302EA030E33EA0202F1D1C7
:100D2C004A68122A3FF649AF122A3FF666AF01A570
:100D3C0055F822F0EF0B0008870C0008910C000806
:100D4C00A30C0008070C0008070C0008070C00088F
:100D5C00070C0008070C0008070C0008070C00081B
:100D6C00070C0008070C0008070C0008070C00080B
:100D7C00070C0008070C00088B0C0008970C0008E7
:100D8C00012395E7022393E7114A136823EA0E0324
:100D9C0013609CE70E4A536823EA0E0353609FE7E7
:100DAC000B4A936823EA0E039360A2E7084AD368C0
:100DBC0023EA0E03D360A5E702B070BD0000221039
:100DCC0000003110001002400000014000080140FA
:100DDC00000401400AB101617047090401617047C8
:100DEC00C36801EA030221EA030141EA02410161FD
:100DFC00704738B512F4804F44D00468B4F85030C2
:100E0C009BB291F800C003EBCC03023304EB430319
:100E1C00B3F80044C4F309048B69A34228D31B1B09
:100E2C008B618B697BB9056835F82C309BB223F448
:100E3C00804323F0700383F4005343F4004343F0E6
:100E4C00800325F82C3012F0400F0ED002680D787C
:100E5C0032F825309BB223F4E04323F0700343F4C3
:100E6C00004343F0C00322F8253024B9204638BD96
:100E7C0000238B61D5E723460A894969006802F093
:100E8C00D4FAF3E70468B4F850309BB291F800C080
:100E9C0003EBCC03063304EB4303B3F80044C4F375
:100EAC0009048B69A3422FD31B1B8B618B697BB904
:100EBC00056835F82C309BB223F4804323F0700383
:100ECC0083F4005343F4004343F0800325F82C30A3
:100EDC0012F0400F0FD1026891F800C032F82C309C
:100EEC009BB223F4E04323F0700343F4004343F03C
:100EFC00C00322F82C30002CB8D023464A8949690B
:100F0C00006802F092FAB1E700238B61CEE770B56E
:100F1C0086B0002800F08580044690F8A932EBB129
:100F2C00032384F8A932206801F0C8FA254655F845
:100F3C00106BEC460FCDACE80F002B68CCF80030F2
:100F4C00231D0ECB304601F0A9FA054658B10223F9
:100F5C0084F8A9320125284606B070BD80F8A83265
:100F6C0003F000FADCE70021206801F0B1FA2B460F
:100F7C001AE05A1C02EB820104EBC10101204870FB
:100F8C0002EB820104F8313003EB830104EBC10165
:100F9C00CB8602EB820C04EBCC0C00208CF803000B
:100FAC008863C8630864D3B261688B42E1D316E0EE
:100FBC0005EB850304EBC303002283F8692183F856
:100FCC00685183F86B21C3F87821C3F87C2105EBB9
:100FDC00850304EBC303C3F880210135EDB2A942AC
:100FEC00E6D8254655F8106BEC460FCDACE80F0053
:100FFC002B68CCF80030231D0ECB304601F06AFA7A
:10100C00054620B1022384F8A9320125A3E7002369
:10101C0084F82430012384F8A932206801F090FD73
:10102C0099E7012597E738B590F8A832012B11D034
:10103C000446012580F8A852006801F036FA2946CA
:10104C00204603F0A4FA206801F078FD002084F813
:10105C00A80238BD0220FCE770B505460C461646C2
:10106C0012F0400F00F00D810268B2F850309BB2C4
:10107C00097803EBC103023302EB4303B3F80024FA
:10108C00C2F30902A369934252D99B1AA361A369C3
:10109C00002B6AD16378002B4DD12B68B3F850200C
:1010AC0092B2134403EB0111B1F804349BB223F454
:1010BC00F8439BB2A1F80434B1F804346FEA43430B
:1010CC006FEA53439BB2A1F804342B686278002A70
:1010DC003ED1B3F8502092B21344227803EB0213A2
:1010EC00B3F80C2492B222F4F84292B2A3F80C2476
:1010FC00B3F80C246FEA42426FEA524292B2A3F860
:10110C000C242178284603F061F916F4804F41D065
:10111C002A68217832F821309BB223F4E04323F083
:10112C00700343F4404343F0800322F8213031E054
:10113C000023A361ABE7012BC7D12B68B3F8502078
:10114C0092B2134403EB01110023A1F80434BCE761
:10115C00012AD6D1B3F8502092B21344227803EB73
:10116C0002130022A3F80C24CBE716F4804F0DD009
:10117C00286830F821309BB223F4E04323F070034D
:10118C0043F4404343F0800320F8213094F824309A
:10119C00012B12D02A68217832F821309BB223F42B
:1011AC00E04323F0400383F0300343F4004343F067
:1011BC00800322F82130002070BD63691344636101
:1011CC00E3691344E361216A236999421FD3C91A65
:1011DC0021626278002A3FD12A68B2F8501089B295
:1011EC000A44217802EB0112EBB9B2F8041489B26B
:1011FC0021F4F84189B2A2F80414B2F804146FEA8D
:10120C0041416FEA514189B2A2F8041426E021B998
:10121C00002384F824301346DBE7002384F82430C1
:10122C0023620B46D5E73E2B09D8590813F0010F62
:10123C0000D00131890289B2A2F804140EE05909D8
:10124C0013F01F0F00D101396FEAC1616FEA5141F0
:10125C0089B2A2F8041401E0012A06D09BB22289BB
:10126C006169286801F074FC94E72A68B2F85010A0
:10127C0089B20A44217802EB011299B2A2F8041443
:10128C00ECE70268B2F850309BB2097803EBC1036B
:10129C00063302EB4303B3F80024C2F30902A3693B
:1012AC00934253D39B1AA361A369002B6BD1637830
:1012BC00002B4ED12B68B3F8502092B2134403EBA1
:1012CC000111B1F804349BB223F4F8439BB2A1F89A
:1012DC000434B1F804346FEA43436FEA53439BB2CE
:1012EC00A1F804342B686278002A3FD1B3F850205F
:1012FC0092B21344227803EB0213B3F80C2492B28B
:10130C0022F4F84292B2A3F80C24B3F80C246FEA3E
:10131C0042426FEA524292B2A3F80C24217828463A
:10132C0003F054F816F4804F7FF434AF2A68217818
:10133C0032F821309BB223F4E04323F0700343F4E2
:10134C00404343F0800322F8213023E70023A361BC
:10135C00AAE7012BC6D12B68B3F8502092B21344E4
:10136C0003EB01110023A1F80434BBE7012AD5D10A
:10137C00B3F8502092B21344227803EB02130022EC
:10138C00A3F80C24CAE716F4804F0DD1286830F866
:10139C0021309BB223F4E04323F0700343F4404329
:1013AC0043F0800320F8213094F82430012B7FF493
:1013BC00F1AE636913446361E3691344E361216A29
:1013CC00236999421FD3C91A21622A6861780029BE
:1013DC003ED1B2F8501089B20A44217802EB0112C6
:1013EC00EBB9B2F80C1489B221F4F84189B2A2F825
:1013FC000C14B2F80C146FEA41416FEA514189B2F6
:10140C00A2F80C1426E021B9002384F824301346EA
:10141C00DBE70023236284F824300B46D5E73E2B10
:10142C0009D8590813F0010F00D00131890289B293
:10143C00A2F80C140EE0590913F01F0F00D101395A
:10144C006FEAC1616FEA514189B2A2F80C1401E054
:10145C00012906D09BB262896169286801F078FB8A
:10146C0098E6B2F8501089B20A44217802EB0112C6
:10147C0099B2A2F80C14EDE72DE9F0410546286865
:10148C00B0F8443013F4004F00F00F82B0F8444031
:10149C00A3B214F00F0440F0D88013F0100F61D0F9
:1014AC0003889AB213F4006F40F0938012F4004F4B
:1014BC00E5D0038823F070031B051B0D43F080035C
:1014CC0003802868B0F850309BB295F8682103EB84
:1014DC00C203063300EB4303B3F80034C3F3090330
:1014EC00C5F884318BB1D5F87C1171B1B5F86E218A
:1014FC0001F09BFFD5F88421D5F87C311344C5F855
:10150C007C310021284602F055FF2B681A8812F412
:10151C00006FB4D1B3F8502092B21344D5F87821AF
:10152C00002A79D1B3F80C2492B222F4F84292B288
:10153C00A3F80C24B3F80C246FEA42426FEA52422F
:10154C0092B2A3F80C242A6813889BB223F480432C
:10155C0023F0700383F4405343F4004343F08003BF
:10156C0013808CE703889BB223F4E14323F07003D0
:10157C006FEA43436FEA53439BB203802A68B2F885
:10158C0050309BB295F8281003EBC103023302EBE9
:10159C004303B3F80034C3F309036B64EA6B1344DD
:1015AC00EB630021284602F011FF95F82430002B44
:1015BC003FF465AF2B6C002B7FF461AF95F82430B2
:1015CC002A6843F08003A2F84C30002385F82430BD
:1015DC0055E7B0F850309BB295F8682103EBC20385
:1015EC00063300EB4303B3F80034C3F30903C5F827
:1015FC008431B5F86E2105F52C7101F016FF2A68BF
:10160C00138823F070031B051B0D43F0800313801C
:10161C00284602F0C7FE32E73E2A09D8510812F0DC
:10162C00010F00D001318A0292B2A3F80C248AE790
:10163C00510912F01F0F00D101396FEAC1626FEA34
:10164C00524292B2A3F80C247DE730F824309EB2BB
:10165C0013F4004F4FD116F0800F3FF410AF621C03
:10166C0002EB820105EBC101286830F824309BB2F3
:10167C0023F4E14323F070036FEA43436FEA5343CF
:10168C009BB220F82430CB78032B07D033B1022B3C
:10169C0040F0068116F4807F40F002812868B0F893
:1016AC0050309BB2621C02EB820215F8326003EBE5
:1016BC00C603023300EB4303B3F80034C3F309034E
:1016CC0004EB840205EBC202126C9A4240F2D48005
:1016DC0004EB840705EBC707D21A3A6404EB8402C7
:1016EC0005EBC202126C002A40F0CD803146284630
:1016FC0002F06CFEC3E630F8243023F070031B05B7
:10170C001B0D43F0800320F8243004EB8401C90046
:10171C0001F5B47105EB010804EB840305EBC3037D
:10172C0093F87431002B42D12868B0F850309BB23A
:10173C0004EB840205EBC20292F8682103EBC203AE
:10174C00063300EB4303B3F80074C7F3090717BB68
:10175C0004EB840305EBC303D3F884213A44C3F8A8
:10176C008421D3F87C213A44C3F87C21D3F880310E
:10177C003BB104EB840305EBC303D3F878319F42F0
:10178C0075D204EB840305EBC30393F86811284668
:10179C0002F010FE5FE704EB840105EBC1013B4650
:1017AC00B1F86E21D1F87C1101F03FFED0E704EBCB
:1017BC00840305EBC30393F86B31022B35D02968F6
:1017CC0004EB840205EBC20292F8680131F8203078
:1017DC009BB223F4E04323F0700343F4004343F043
:1017EC00C00321F82030286892F8682130F82230A4
:1017FC0013F4804F20D0B0F850309BB203EBC203EF
:10180C00023300EB4303B3F80074C7F30907002F4E
:10181C009ED004EB840105EBC1013B46B1F870216D
:10182C00D1F87C1101F001FE92E732464146284680
:10183C00FFF7DFFA07468BE7B0F850309BB203EBAB
:10184C00C203063300EB4303B3F80074C7F3090774
:10185C00002F3FF47DAF04EB840105EBC1013B4647
:10186C00B1F87221D1F87C1101F0DFFD70E741462F
:10187C00286801F081F9EEE604EB840205EBC20264
:10188C00002717642AE704EB840205EBC202D66B2F
:10189C001E44D663546C2344536401F06DF9EEE599
:1018AC0032462846FFF7D8FBE9E50020BDE8F08179
:1018BC0090F8A832012B0DD010B50446012380F806
:1018CC00A83280F82410006801F032F9002084F866
:1018DC00A80210BD0220704710B584B00446006801
:1018EC0001F030F910F4004F47D1206801F02AF9CB
:1018FC0010F4806F45D1206801F024F910F4804F6A
:10190C0008D02268B2F844309BB223F480439BB2D7
:10191C00A2F84430206801F015F910F4005F08D0EB
:10192C002268B2F844309BB223F400539BB2A2F865
:10193C004430206801F006F910F4805F32D1206841
:10194C0001F000F910F4006F78D1206801F0FAF87A
:10195C0010F4007F40F09D80206801F0F3F810F443
:10196C00807F08D02268B2F844309BB223F4807395
:10197C009BB2A2F8443004B010BD2046FFF77CFDAA
:10198C00B3E72268B2F844309BB223F480639BB275
:10199C00A2F84430204602F02AFD00212046FFF731
:1019AC0087FFA8E72268B2F840309BB223F004030B
:1019BC009BB2A2F840302268B2F840309BB223F0C0
:1019CC0008039BB2A2F84030204602F033FD226897
:1019DC00B2F844309BB223F480539BB2A2F844304B
:1019EC00ADE7226832F8231004AA02EB430222F876
:1019FC00101C0133DBB2072BF3D92268B2F840304C
:101A0C009BB243F00103A2F840302268B2F8403098
:101A1C009BB223F001039BB2A2F840302368B3F8C9
:101A2C00442012F4806FF9D0B3F8442092B222F41F
:101A3C00806292B2A3F8442000230BE00023DAE783
:101A4C00226804A901EB430131F8101C22F8231081
:101A5C000133DBB2072BF3D92268B2F840309BB2CA
:101A6C0043F00803A2F840302268B2F844309BB22D
:101A7C0023F400639BB2A2F844302268B2F84030E1
:101A8C009BB243F00403A2F84030204602F0C2FCA3
:101A9C005BE72268B2F844309BB223F400739BB22C
:101AAC00A2F84430204602F09CFC55E710B50446E1
:101ABC008C4611F0800F2AD101F0070000EB800159
:101ACC00C90001F5B47E04EB0E0100EB800004EBC1
:101ADC00C0004FF0000E80F869E10CF0070C81F8A3
:101AEC0000C00A61CB704A780AB1A1F80EC0022B73
:101AFC0019D094F8A832012B18D0012384F8A832FD
:101B0C00206800F0F8FC002084F8A80210BD01F059
:101B1C000700013000EB800104EBC1014FF0010E16
:101B2C0081F801E0D9E700230B71E2E70220EDE731
:101B3C0010B504460B4611F0800F1FD101F00702BF
:101B4C0002EB8201C90001F5B471014402EB82027F
:101B5C0000EBC202002082F8690103F007030B704E
:101B6C0094F8A832012B13D0012384F8A8322068F2
:101B7C0000F07DFE002084F8A80210BD01F00702E1
:101B8C00013202EB820100EBC10101204870E4E755
:101B9C000220F2E710B501F0070404EB8401C90040
:101BAC0001F5B471014404EB840C00EBCC0CCCF8C3
:101BBC007C21CCF880310023CCF884318CF869314D
:101BCC008CF8684124B9006800F0D6FF002010BDE5
:101BDC00006800F0D1FFF9E701F0070101EB81018A
:101BEC0000EBC101D1F88401704710B501F0070476
:101BFC0004F1010C0CEB8C0100EBC10104EB840E25
:101C0C0000EBCE0ECEF83C20CEF8403001228EF800
:101C1C004C20CEF848300023CEF844304A700CEB00
:101C2C008C0C00F83C4024B9006800F0A5FF0020A3
:101C3C0010BD006800F0A0FFF9E738B501F007050A
:101C4C004268954231D804460B4611F0800F1ED1E4
:101C5C0001EB8101C90001F5B471014403EB83036D
:101C6C0000EBC303002283F8692101238B700D70F4
:101C7C0094F8A832012B1AD0012384F8A8322068DA
:101C8C0000F0E0FE5DB1002084F8A80238BD6B1CAA
:101C9C0003EB830100EBC10101224A70E5E704F577
:101CAC002C71206800F052FFEDE70120EEE70220D6
:101CBC00ECE70B4601F00F014268914230D810B5A9
:101CCC00044613F0800F21D103F0070202EB8201CE
:101CDC00C90001F5B471014402EB820200EBC202AF
:101CEC00002082F8690100228A7003F007030B7050
:101CFC0094F8A832012B15D0012384F8A83220685F
:101D0C0000F0C5FE002084F8A80210BD03F0070205
:101D1C00013202EB820100EBC10101204870E2E7C5
:101D2C00012070470220F0E711F0800F0BD001F07A
:101D3C000701013101EB810100EBC10152B90A73BA
:101D4C00CB800020704701EB8101C90001F5B47113
:101D5C000144F3E701220A730B811B0C4B81F0E762
:101D6C0082B0084B1B68084AA2FB03235B0A00FBEA
:101D7C0003F3019300BF019B5A1E0192002BF9D172
:101D8C0002B0704700000020D34D6210002800F014
:101D9C00F18170B582B00446036813F0010F2CD0AA
:101DAC00994B5B6803F00C03042B1DD0964B5B68BE
:101DBC0003F00C03082B12D06368B3F5803F41D0BD
:101DCC00002B55D103F1804303F504331A6822F438
:101DDC0080321A601A6822F480221A6037E08A4B2B
:101DEC005B6813F4803FE7D0874B1B6813F4003F0C
:101DFC0003D06368002B00F0BF81236813F0020F3F
:101E0C0075D0814B5B6813F00C0F5FD07E4B5B6819
:101E1C0003F00C03082B54D02369002B00F08A80AC
:101E2C007A4B01221A60FEF737FC0546764B1B688D
:101E3C0013F0020F75D1FEF72FFC401B0228F5D9C9
:101E4C0003209EE1704A136843F480331360636887
:101E5C0043B3FEF721FC05466B4B1B6813F4003FA4
:101E6C00CBD1FEF719FC401B6428F5D9032088E17F
:101E7C00B3F5A02F09D0644B1A6822F480321A6093
:101E8C001A6822F480221A60E1E703F18043A3F57B
:101E9C003C331A6842F480221A601A6842F4803289
:101EAC001A60D4E7FEF7F8FB0546574B1B6813F492
:101EBC00003FA2D0FEF7F0FB401B6428F5D90320AD
:101ECC005FE1514B5B6813F4803FA5D14E4B1B680F
:101EDC0013F0020F03D02369012B40F04F814A4AC3
:101EEC00136823F0F803616943EAC10313602368A4
:101EFC0013F0080F33D0A369002B5CD0434B0122A5
:101F0C00C3F88024FEF7C8FB05463F4B5B6A13F011
:101F1C00020F21D1FEF7C0FB401B0228F5D903208C
:101F2C002FE1394A136823F0F803616943EAC103CE
:101F3C001360DCE7354B00221A60FEF7ADFB05465B
:101F4C00314B1B6813F0020FD1D0FEF7A5FB401BE1
:101F5C000228F5D9032014E10120FFF701FF2368C3
:101F6C0013F0040F00F09680274BDB6913F0805FB1
:101F7C0034D1254BDA6942F08052DA61DB6903F027
:101F8C0080530193019B0125214B1B6813F4807F27
:101F9C0026D0E368012B3DD0002B53D103F18043B5
:101FAC0003F504331A6A22F001021A621A6A22F04B
:101FBC0004021A6233E0154B0022C3F88024FEF7AA
:101FCC006BFB0546104B5B6A13F0020FC7D0FEF794
:101FDC0063FB401B0228F5D90320D2E00025D3E790
:101FEC000B4A136843F480731360FEF755FB0646E7
:101FFC00074B1B6813F4807FCBD1FEF74DFB801B86
:10200C006428F5D90320BCE00010024000004242D5
:10201C00007000405F4A136A43F001031362E368E7
:10202C0033B3FEF739FB06465A4B1B6A13F0020F0B
:10203C002FD1FEF731FB801B41F288339842F3D944
:10204C0003209EE0052B09D0524B1A6A22F00102A4
:10205C001A621A6A22F004021A62E0E74D4B1A6AFD
:10206C0042F004021A621A6A42F001021A62D6E7BE
:10207C00FEF712FB0646474B1B6A13F0020F08D003
:10208C00FEF70AFB801B41F288339842F3D90320F8
:10209C0077E0E5B9E369002B72D03E4A526802F052
:1020AC000C02082A56D0022B17D03B4B00221A6682
:1020BC00FEF7F2FA0446374B1B6813F0007F47D04B
:1020CC00FEF7EAFA001B0228F5D9032059E0314A41
:1020DC00D36923F08053D361DCE72F4B00221A66BF
:1020EC00FEF7DAFA05462B4B1B6813F0007F06D07F
:1020FC00FEF7D2FA401B0228F5D9032041E0236AEF
:10210C00B3F5803F1AD023494B6823F47413226A29
:10211C00606A024313434B601F4B01221A66FEF7A1
:10212C00BBFA04461B4B1B6813F0007F0ED1FEF765
:10213C00B3FA001B0228F5D9032022E0154A536894
:10214C0023F40033A1680B435360DCE7002018E054
:10215C00002016E0012B16D00E4B5B6803F4803187
:10216C00226A914211D103F47013626A93420ED128
:10217C00002006E001207047012002E0012000E071
:10218C00002002B070BD0120FBE70120F9E701201F
:10219C00F7E700BF001002400000424286B0194B26
:1021AC000FCB0DF1180C0CE90F0040F20123ADF828
:1021BC000430154B5A6802F00C03042B1CD0082B6E
:1021CC001CD1C2F3834318336B4413F8100C12F474
:1021DC00803F0DD00C4B5B68C3F3404318336B440A
:1021EC0013F8143C094A02FB00F0B0FBF3F006E0D4
:1021FC00074B03FB00F002E0044800E0054806B082
:10220C00704700BFE4470008001002400024F400AF
:10221C0000093D0000127A00002800F0A08070B583
:10222C000D460446524B1B6803F007038B420BD23E
:10223C004F4A136823F007030B431360136803F032
:10224C0007038B4240F08D80236813F0020F17D0E8
:10225C0013F0040F04D0474A536843F4E06353600F
:10226C00236813F0080F04D0424A536843F46053B8
:10227C005360404A536823F0F003A1680B4353604A
:10228C00236813F0010F31D06368012B20D0022B8F
:10229C0025D0384A126812F0020F64D035494A68CA
:1022AC0022F0030213434B60FEF7F6F90646314B5E
:1022BC005B6803F00C036268B3EB820F16D0FEF779
:1022CC00EBF9801B41F288339842F0D9032045E0AA
:1022DC00284A126812F4003FE0D101203EE0254A62
:1022EC00126812F0007FD9D1012037E0204B1B6817
:1022FC0003F00703AB420AD91D4A136823F0070306
:10230C002B431360136803F00703AB422DD12368F2
:10231C0013F0040F06D0174A536823F4E063E16806
:10232C000B435360236813F0080F07D0114A53680E
:10233C0023F46053216943EAC1035360FFF72EFF76
:10234C000C4B5B68C3F303130B4AD35CD8400B4BA9
:10235C0018600B4B1868FEF75BF9002070BD01206C
:10236C0070470120FAE70120F8E70120F6E700BFEB
:10237C000020024000100240D4470008000000205A
:10238C000800002070B582B00446036813F0010FFA
:10239C0036D03F4BDB6913F0805F49D13C4BDA6997
:1023AC0042F08052DA61DB6903F080530193019BA8
:1023BC000125384B1B6813F4807F3BD0344B1B6AD0
:1023CC0013F4407313D0626802F440729A420ED038
:1023DC002F4A136A23F440702F490126C1F8406438
:1023EC000026C1F84064106213F0010F36D1284A60
:1023FC00136A23F4407361680B431362002D3ED1C2
:10240C00236813F0020F06D0214A536823F440438B
:10241C00A1680B435360236813F0100F34D01C4A8F
:10242C00536823F48003E1680B43536000202CE0D5
:10243C000025BEE7174A136843F480731360FEF758
:10244C002BF90646134B1B6813F4807FB6D1FEF7AD
:10245C0023F9801B6428F5D9032016E0FEF71CF93C
:10246C0006460B4B1B6A13F0020FC0D1FEF714F992
:10247C00801B41F288339842F3D9032005E0D369DD
:10248C0023F08053D361BBE7002002B070BD00BFC6
:10249C0000100240007000400000424284B001A8CD
:1024AC0080E80E00002004B0704703460020A3F81B
:1024BC0044004FF43F42A3F840207047B0F840303E
:1024CC0023F47C535B045B0CA0F840300020704775
:1024DC000020704784B0844601A880E80E000123D8
:1024EC00ACF840300020ACF84000ACF84400ACF83C
:1024FC00500004B0704710B5034691F800C030F896
:10250C002C2092B222F4EC4222F0700292B2C878E3
:10251C00032861D8DFE800F0555C0258002048F22F
:10252C00800E42EA0E0223F82C2091F800C033F8FA
:10253C002C2092B222F4E04222F070024CEA020209
:10254C0042EA0E0223F82C200A7B002A40F0C480B9
:10255C004A78002A51D0B3F8502092B21A440C7821
:10256C0002EB0412B1F806C04FEA5C0C4FEA4C0CBB
:10257C00A2F800C40C7833F8242012F0400F0CD0D1
:10258C0033F8242092B222F4E04222F0700242F49A
:10259C00004242F0C00223F82420CA78012A1DD040
:1025AC00097833F8212092B222F4E04222F0400262
:1025BC0082F0200242F4004242F0800223F82120F3
:1025CC006AE042F40072AAE742F4C0620020A6E777
:1025DC0042F480620020A2E70120A0E7097833F8DA
:1025EC00212092B222F4E04222F0400242F4004256
:1025FC0042F0800223F821204EE0B3F8502092B232
:10260C001A440C7802EB0412B1F806C04FEA5C0CC9
:10261C004FEA4C0CA2F808C4B3F8502092B21A44FA
:10262C000C7802EB04120C69BCBBB2F80CC41FFA98
:10263C008CFC2CF4F84C1FFA8CFCA2F80CC4B2F8ED
:10264C000CC46FEA4C4C6FEA5C4C1FFA8CFCA2F881
:10265C000CC40C7833F8242012F4804F0CD033F8CF
:10266C00242092B222F4E04222F0700242F4404262
:10267C0042F0800223F82420097833F8212092B20A
:10268C0022F4804222F0700282F4405242F4004262
:10269C0042F0800223F8212010BD3E2C0DD84FEAC9
:1026AC00540C14F0010F01D00CF1010C4FEA8C2CDE
:1026BC001FFA8CFCA2F80CC4CBE74FEA541C14F0A4
:1026CC001F0F01D10CF1FF3C6FEACC646FEA54444C
:1026DC00A4B2A2F80C44BCE791F800C033F82C204B
:1026EC0092B222F4E04222F0700242F4014242F033
:1026FC00800223F82C20B3F8502092B21A4491F89F
:10270C0000C002EB0C12B1F808C04FEA5C0C4FEAA7
:10271C004C0CA2F800C4B3F8502092B21A4491F8B1
:10272C0000C002EB0C12B1F80AC04FEA5C0C4FEA85
:10273C004C0CA2F808C44A78002A41D10C7833F822
:10274C00242012F4804F0CD033F8242092B222F4BF
:10275C00E04222F0700242F4404242F0800223F840
:10276C0024200C7833F8242012F0400F0CD033F8CE
:10277C00242092B222F4E04222F0700242F4004291
:10278C0042F0C00223F8242091F800C033F82C202A
:10279C0092B222F4804222F0700282F4405248F24B
:1027AC008004224323F82C20097833F8212092B29C
:1027BC0022F4E04222F04002224323F821206BE76E
:1027CC000C7833F8242012F4804F0CD033F82420EA
:1027DC0092B222F4E04222F0700242F4404242F003
:1027EC00800223F824200C7833F8242012F0400FB8
:1027FC000CD033F8242092B222F4E04222F0700282
:10280C0042F4004242F0C00223F82420CA78012A84
:10281C001ED00C7833F8242092B222F4E04222F03D
:10282C00400282F0200242F4004242F0800223F87F
:10283C002420097833F8212092B222F4804222F02D
:10284C00700242F4004242F0800223F8212023E778
:10285C000C7833F8242092B222F4E04222F04002A9
:10286C0042F4004242F0800223F82420E1E70B7B83
:10287C00002B46D14B7813B30A7830F8223013F082
:10288C00400F0CD030F822309BB223F4E04323F0FD
:10289C00700343F4004343F0C00320F822300A785D
:1028AC0030F822309BB223F4E04323F0400343F48E
:1028BC00004343F0800320F82230002070470A7850
:1028CC0030F8223013F4804F0CD030F822309BB209
:1028DC0023F4E04323F0700343F4404343F08003BC
:1028EC0020F822300A7830F822309BB223F480434F
:1028FC0023F0700343F4004343F0800320F82230AC
:10290C00DBE74B78002B4ED10A7830F8223013F4E9
:10291C00804F0CD030F822309BB223F4E04323F0EC
:10292C00700343F4404343F0800320F822300A78CC
:10293C0030F8223013F0400F0CD030F822309BB21C
:10294C0023F4E04323F0700343F4004343F0C0034B
:10295C0020F822300A7830F822309BB223F4E0437E
:10296C0023F0700343F4004343F0C00320F82230FB
:10297C000B7830F8232092B222F4804222F07002BD
:10298C0048F2800C42EA0C0220F823200A7830F836
:10299C0022309BB223F4E04323F0400343EA0C03C0
:1029AC0020F8223089E70A7830F8223013F4804F6F
:1029BC000CD030F822309BB223F4E04323F07003A8
:1029CC0043F4404343F0800320F822300A7830F877
:1029DC00223013F0400F0CD030F822309BB223F48D
:1029EC00E04323F0700343F4004343F0C00320F8AA
:1029FC0022300A7830F822309BB223F4E04323F0E3
:102A0C00700343F4404343F0800320F822300B78EA
:102A1C0030F8232092B222F4E04222F0400248F235
:102A2C00800C42EA0C0220F823200A7830F822307D
:102A3C009BB223F4804323F0700343EA0C0320F889
:102A4C0022303AE74B788BB10A7830F822309BB2BF
:102A5C0023F4E04323F0400383F0100343F40043DA
:102A6C0043F0800320F82230002070470A7830F8B9
:102A7C0022309BB223F4804323F0700383F4805301
:102A8C0043F4004343F0800320F82230ECE70B7B47
:102A9C00002B4BD14B7833B30A7830F8223013F03B
:102AAC00400F0CD030F822309BB223F4E04323F0DB
:102ABC00700343F4004343F0C00320F82230CB787A
:102ACC00012B33D00A7830F822309BB223F4E04348
:102ADC0023F0400383F0200343F4004343F08003CE
:102AEC0020F8223022E00A7830F8223013F4804F9C
:102AFC000CD030F822309BB223F4E04323F0700367
:102B0C0043F4404343F0800320F822300A7830F835
:102B1C0022309BB223F4804323F0700383F44053A0
:102B2C0043F4004343F0800320F822300020704728
:102B3C0011B98023A0F84C3000207047002070475A
:102B4C0000207047B0F8440080B2704700207047F6
:102B5C0010B45C1C640800EB420202F5806207E0D2
:102B6C000B78487843EA002322F8043B0231013CFD
:102B7C00002CF5D110BC704770B505460C464B784F
:102B8C00012B37D00A7B002A40F026838B690A6917
:102B9C00934240F204839B1A8B61B5F850309BB280
:102BAC002B44217803EB0113002A40F0FC82B3F88C
:102BBC000C2492B222F4F84292B2A3F80C24B3F88B
:102BCC000C246FEA42426FEA524292B2A3F80C24F0
:102BDC00227835F822309BB223F4804323F0700323
:102BEC0083F4405343F4004343F0800325F8223030
:102BFC00002070BD8E690A69964200D91646237B67
:102C0C00002B39D0E378022B58D0227835F82230BB
:102C1C009BB223F4E04323F0700343F4014343F0ED
:102C2C00800325F82230236A9B1B2362237835F816
:102C3C00232012F0400F00F026826278002A40F028
:102C4C00CA81B5F8502092B22A4402EB0313002E2D
:102C5C0040F0A881B3F80C2492B222F4F84292B25C
:102C6C00A3F80C24B3F80C246FEA42426FEA5242E8
:102C7C0092B2A3F80C24B0E1B6B23346E288616993
:102C8C002846FFF765FFB5F850309BB22B442278ED
:102C9C0003EB0213A3F80464227835F822309BB2BC
:102CAC0023F4E04323F0400383F0300343F4004368
:102CBC0043F0800325F8223000209AE7236A9A42D9
:102CCC0080F05281227835F822309BB223F4E04315
:102CDC0023F0700343F4014343F0800325F82230C2
:102CEC00236A9B1B2362237835F8232012F0400FB4
:102CFC0000F09D8062788ABBB5F8502092B22A44CD
:102D0C0002EB03138EB9B3F80C2492B222F4F842FE
:102D1C0092B2A3F80C24B3F80C246FEA42426FEA87
:102D2C00524292B2A3F80C241AE03E2E09D8720833
:102D3C0016F0010F00D00132920292B2A3F80C24CB
:102D4C000EE0720916F01F0F00D1013A6FEAC26251
:102D5C006FEA524292B2A3F80C2401E0012A2BD064
:102D6C00B3B2628961692846FFF7F2FE63693344A6
:102D7C006361236A2269934228D99B1B236263787F
:102D8C00002B40D1B5F850309BB22B44227803EB8A
:102D9C000213FEB9B3F8042492B222F4F84292B2B0
:102DAC00A3F80424B3F804246FEA42426FEA5242B7
:102DBC0092B2A3F8042428E0B5F8502092B22A4429
:102DCC0002EB0313B2B2A3F80C24C9E7002222626F
:102DDC001E46D4E73E2E09D8720816F0010F00D01B
:102DEC000132920292B2A3F804240EE0720916F09A
:102DFC001F0F00D1013A6FEAC2626FEA524292B2DF
:102E0C00A3F8042401E0012B06D0B3B22289616936
:102E1C002846FFF79DFE3FE7B5F850309BB22B4498
:102E2C00227803EB0213B2B2A3F80424EDE7627824
:102E3C008ABBB5F8502092B22A4402EB03138EB928
:102E4C00B3F8042492B222F4F84292B2A3F8042408
:102E5C00B3F804246FEA42426FEA524292B2A3F8EA
:102E6C0004241AE03E2E09D8720816F0010F00D087
:102E7C000132920292B2A3F804240EE0720916F009
:102E8C001F0F00D1013A6FEAC2626FEA524292B24E
:102E9C00A3F8042401E0012A2BD0B3B22289616982
:102EAC002846FFF755FE636933446361236A226940
:102EBC00934228D99B1B23626378002B40D1B5F831
:102ECC0050309BB22B44227803EB0213FEB9B3F8BB
:102EDC000C2492B222F4F84292B2A3F80C24B3F868
:102EEC000C246FEA42426FEA524292B2A3F80C24CD
:102EFC0028E0B5F8502092B22A4402EB0313B2B288
:102F0C00A3F80424C9E7002222621E46D4E73E2E11
:102F1C0009D8720816F0010F00D00132920292B259
:102F2C00A3F80C240EE0720916F01F0F00D1013A21
:102F3C006FEAC2626FEA524292B2A3F80C2401E02B
:102F4C00012B06D0B3B2628961692846FFF700FEF7
:102F5C00A2E6B5F850309BB22B44227803EB021357
:102F6C00B2B2A3F80C24EDE7217835F8212092B207
:102F7C0022F4E24222F0700242F4004242F080025B
:102F8C0025F82120B5F8502092B22A44217802EB82
:102F9C0001129BB2A2F80434228961692846FFF71A
:102FAC00D7FD79E63E2E09D8720816F0010F00D035
:102FBC000132920292B2A3F80C240EE0720916F0C0
:102FCC001F0F00D1013A6FEAC2626FEA524292B20D
:102FDC00A3F80C2401E0012A26D0B3B262896169FE
:102FEC002846FFF7B5FD636933446361236A2269A0
:102FFC00934223D99B1B2362002E3FF44DAE637882
:10300C006BBBB5F850309BB22B44227803EB021308
:10301C003E2E17D8720816F0010F00D00132920222
:10302C0092B2A3F804241CE0B5F8502092B22A44C2
:10303C0002EB0313B2B2A3F80C24CEE700222262F7
:10304C001E46D9E7720916F01F0F00D1013A6FEA3C
:10305C00C2626FEA524292B2A3F8042401E0012B3F
:10306C0006D0B3B2228961692846FFF771FD13E6D9
:10307C00B5F850309BB22B44227803EB0213B2B25A
:10308C00A3F80424EDE762788ABBB5F8502092B21D
:10309C002A4402EB03138EB9B3F8042492B222F43F
:1030AC00F84292B2A3F80424B3F804246FEA424223
:1030BC006FEA524292B2A3F804241AE03E2E09D8C9
:1030CC00720816F0010F00D00132920292B2A3F8EE
:1030DC0004240EE0720916F01F0F00D1013A6FEABA
:1030EC00C2626FEA524292B2A3F8042401E0012AB0
:1030FC0026D0B3B2228961692846FFF729FD63699E
:10310C0033446361236A2269934223D99B1B236254
:10311C00002E3FF4C1AD63786BBBB5F850309BB259
:10312C002B44227803EB02133E2E17D8720816F0AC
:10313C00010F00D00132920292B2A3F80C241CE0D1
:10314C00B5F8502092B22A4402EB0313B2B2A3F8A2
:10315C000424CEE7002222621E46D9E7720916F03B
:10316C001F0F00D1013A6FEAC2626FEA524292B26B
:10317C00A3F80C2401E0012B06D0B3B2628961697B
:10318C002846FFF7E5FC87E5B5F850309BB22B4499
:10319C00227803EB0213B2B2A3F80C24EDE7002261
:1031AC008A611A46F9E43E2A09D8510812F0010F37
:1031BC0000D00131890289B2A3F80C1408E5510939
:1031CC0012F01F0F00D101396FEAC1616FEA514152
:1031DC0089B2A3F80C14FBE4CA78022A45D0012A60
:1031EC0040F0208189692269914240F2D480891A89
:1031FC00A161D3B9B5F850309BB22B44217803EBC5
:10320C000113002A40F0CB80B3F8041489B221F4E6
:10321C00F84189B2A3F80414B3F804146FEA4141DD
:10322C006FEA514189B2A3F804146378002B40F083
:10323C00EA80B5F850309BB22B44217803EB011394
:10324C00002A40F0C580B3F80C2492B222F4F84264
:10325C0092B2A3F80C24B3F80C246FEA42426FEA42
:10326C00524292B2A3F80C24B2E4CBB9B0F850306D
:10327C009BB203440A7803EB02130A6972BBB3F8DE
:10328C00042492B222F4F84292B2A3F80424B3F8C4
:10329C0004246FEA42426FEA524292B2A3F8042429
:1032AC006378002B4CD1B5F850309BB22B4422786C
:1032BC0003EB0213226952BBB3F80C2492B222F432
:1032CC00F84292B2A3F80C24B3F80C246FEA4242F1
:1032DC006FEA524292B2A3F80C2433E03E2A09D88A
:1032EC00510812F0010F00D001318A0292B2A3F8FA
:1032FC000424D5E7510912F01F0F00D101396FEAF0
:10330C00C1626FEA524292B2A3F80424C8E73E2A83
:10331C0009D8510812F0010F00D001318A0292B283
:10332C00A3F80C240EE0510912F01F0F00D1013943
:10333C006FEAC1626FEA524292B2A3F80C2401E028
:10334C00012B1DD0E369002B3FF442AC227835F8F9
:10335C00221044F2400303EA01008B4302D0002800
:10336C007FF436AC35F822309BB223F4E04323F0E3
:10337C00700343F4004343F0C00325F8223027E4E4
:10338C00B5F850309BB22B44227803EB0213228AFF
:10339C00A3F80C24D6E70022A2610A4629E73E2AAC
:1033AC0009D8510812F0010F00D00131890289B2FD
:1033BC00A3F8041439E7510912F01F0F00D1013999
:1033CC006FEAC1616FEA514189B2A3F804142CE78A
:1033DC003E2A0AD8510812F0010F00D001318A029E
:1033EC0092B2A3F80C24FFF7F3BB510912F01F0F94
:1033FC0000D101396FEAC1626FEA524292B2A3F86E
:10340C000C24FFF7E5BB012B7FF4E2ABB5F8503091
:10341C009BB22B44217803EB011392B2A3F80C243A
:10342C00FFF7D6BB0120FFF7E4BB10B45C0800EB40
:10343C00420000F5806007E030F8042B0A70C2F3FC
:10344C0007224A700231013C002CF5D113F0010F18
:10345C0001D003880B7010BC704710B5D0F8B8427F
:10346C00D0F8BC325BB194F80002FF2807D09B68FF
:10347C0094F8012221469847FF2384F8003200205B
:10348C0010BD000043230380004870474400002017
:10349C0043230380004870478800002043230380A7
:1034AC0000487047D80000200A230380004870476A
:1034BC00CC00002038B50446D0F8B85201F05CF8C6
:1034CC00C5F80C02D4F8B8324BB1D4F8BC32DB6876
:1034DC0005F50371D5F804029847002038BD022089
:1034EC00FCE710B5D0F8B822D0F8C042F2B101EB2D
:1034FC00810300EB8303DB694BB101EB810C04EB23
:10350C00CC04A46BB3FBF4FC04FB1C3323B10023ED
:10351C00C2F81432002010BD01EB810300EB8303D1
:10352C000022DA61134601F017F8F3E70220F2E704
:10353C00F0B583B006460C46D0F8B87200238DF86F
:10354C000730ADF804300B7813F0600527D0202D30
:10355C0053D1CA88DAB113F0800F0CD0D0F8BC323A
:10356C009B68394660789847E2883946304600F0C7
:10357C0099FD002544E04B7887F800328B7987F869
:10358C000132CA88394600F0A2FD002538E0D0F897
:10359C00BC329B68002248789847002530E04F7871
:1035AC000A2F14D00B2F20D01FB100F06FFA022578
:1035BC0026E090F89C32032B03D000F067FA02252A
:1035CC001EE0022201A900F06DFD3D4618E090F8C6
:1035DC009C32032B03D000F059FA022510E0012293
:1035EC000DF1070100F05EFD0AE090F89C32032B10
:1035FC0006D000F04BFA022502E000F047FA022553
:10360C00284603B0F0BD38B50446812100F06DFFAB
:10361C000025E5620121204600F067FFC4F86C51DB
:10362C008221204600F061FF2564D4F8B8324BB1FA
:10363C00D4F8BC325B689847D4F8B80200F0A6FF07
:10364C00C4F8B852002038BD70B50446037CABBB3F
:10365C004FF400730222812100F03CFF0125E5624A
:10366C004FF4007302222946204600F033FFC4F8C1
:10367C006C51082303228221204600F02BFF0123EA
:10368C0023644FF4077000F07DFF0546C4F8B802C0
:10369C0068B3D4F8BC321B6898470023C5F81432C1
:1036AC00C5F81832267CCEB94FF40073D5F8042235
:1036BC000121204600F058FF304670BD4023022205
:1036CC00812100F007FF0125E562402302222946F3
:1036DC00204600F0FFFEC4F86C51CAE74023D5F831
:1036EC0004220121204600F03FFF0026E4E70126DA
:1036FC00E2E719B1C0F8BC120020704702207047F5
:10370C00D0F8B832C3F80812C3F810220020704762
:10371C00D0F8B832C3F8041200207047D0F8B822A1
:10372C00A2B108B5D2F814320BB1012008BD0123A7
:10373C00C2F81432D2F810320363B2F81032D2F855
:10374C000822812100F008FF0020EFE702207047DB
:10375C00D0F8B82292B108B5037C43B94FF400738A
:10376C00D2F80422012100F0FFFE002008BD402306
:10377C00D2F80422012100F0F7FEF6E70220704790
:10378C0098B108B50346D0F8B40210B10020C3F8C4
:10379C00B40209B1C3F8B012012183F89C121A705B
:1037AC00184600F04DFE002008BD0220704719B1EC
:1037BC00C0F8B412002070470220704708B500F022
:1037CC0081FE002008BD08B5D0F8B4322BB11B68BF
:1037DC00984700B908BD0220FCE70220FAE708B5BB
:1037EC00D0F8B4325B689847002008BD38B5044661
:1037FC0000F52A75284600F035F90123C4F89432F7
:10380C00B4F8AE32C4F8983294F8A81201F01F0341
:10381C00012B0ED0022B11D02BB101F080012046D0
:10382C0000F06BFE03E02946204600F0C9FA0020A8
:10383C0038BD2946204600F0F7FAF8E7294620461D
:10384C0000F022FBF3E738B504460D4691BB134656
:10385C00D0F89422032A03D0052A24D0084633E05A
:10386C00D0F86011D0F8642191420DD9891AC0F8B2
:10387C0060118A4206D98AB21946204600F036FCFD
:10388C00284621E092B2F7E7D0F8B4321B691BB19D
:10389C0090F89C22032A04D0204600F02FFC2846E6
:1038AC0012E09847F8E70021C0F8941200F025FECA
:1038BC00284609E0D0F8B4329B6933B190F89C22C9
:1038CC00032A04D19847002038BD0220FCE70220CF
:1038DC00FAE738B504460D46002953D11346D0F803
:1038EC009422022A0CD0042A00D01AB98021204636
:1038FC0000F003FE94F8A032012B3ED0284638BDD0
:10390C00016A426A91421BD8C169B1FBF2F302FB16
:10391C0013132BB98A4203D8D0F8983299421CD38E
:10392C00D4F8B432DB681BB194F89C22032A21D062
:10393C008021204600F0E1FD204600F0EAFBD9E7AB
:10394C008A1A026292B2194600F0B9FB00231A4699
:10395C001946204600F008FECCE70022114600F084
:10396C00AEFB0021C4F898120B460A46204600F024
:10397C00FBFDBFE720469847DAE7002384F8A03226
:10398C002846BCE7D0F8B4325B6933B190F89C227E
:10399C00032A04D198470020B1E70220AFE70220A8
:1039AC00ADE770B5044640230022114600F092FDAD
:1039BC000125C4F858514026C4F8646133460022EE
:1039CC008021204600F086FDA561666284F89C5239
:1039DC000023C4F894326360C4F8A432D4F8B8322B
:1039EC002BB1D4F8B4325B680021204698470020F4
:1039FC0070BD01740020704790F89C3280F89D32A5
:103A0C00042380F89C320020704790F89C32042BE1
:103A1C0001D00020704790F89D3280F89C32F8E776
:103A2C0008B590F89C32032B01D0002008BDD0F8CB
:103A3C00B432DB69002BF8D09847F6E70346002038
:103A4C0002E00130C0B201331A78002AF9D1704774
:103A5C0008B54B88012B00D008BDC0F8A43200F08B
:103A6C004DFBF9E70B7803704B7843708B78CA7871
:103A7C0003EB022343800B794A7903EB0223838007
:103A8C008B79CA7903EB0223C380704710B50446C7
:103A9C00802100F032FD0021204600F02EFD10BDEB
:103AAC0030B583B005460C460023ADF806304A8885
:103ABC00130A013B062B00F2A480DFE803F0041884
:103ACC002CA2A2869300D0F8B0321B680DF106012F
:103ADC00007C9847BDF806201AB1E388002B40F013
:103AEC009480E388002B00F09A8003B030BD037CF7
:103AFC0043B9D0F8B4329B6A0DF106009847022303
:103B0C004370E7E7D0F8B432DB6A0DF10600984752
:103B1C0002234370DEE7D2B2052A52D8DFE802F066
:103B2C0003101D2A3744D0F8B0325B6823B10DF175
:103B3C000601007C9847CDE72146FFF7A7FFD4E7A5
:103B4C00D0F8B0329B6823B10DF10601007C984788
:103B5C00C0E72146FFF79AFFC7E7D0F8B032DB6821
:103B6C0023B10DF10601007C9847B3E72146FFF71E
:103B7C008DFFBAE7D0F8B0321B6923B10DF1060105
:103B8C00007C9847A6E72146FFF780FFADE7D0F809
:103B9C00B0325B6923B10DF10601007C984799E7BF
:103BAC002146FFF773FFA0E7D0F8B0329B6923B131
:103BBC000DF10601007C98478CE72146FFF766FF64
:103BCC0093E72146FFF762FF8FE7037C33B9D0F808
:103BDC00B4325B6B0DF1060098477BE72146FFF78B
:103BEC0055FF82E7037C43B9D0F8B4321B6B0DF15F
:103BFC0006009847072343706CE72146FFF746FF02
:103C0C0073E72146FFF742FF6FE79A4228BF1A4637
:103C1C00ADF806200146284600F044FA61E7284634
:103C2C0000F06CFA61E738B504468B88F3B9CB88A1
:103C3C00E3B94B887F2B19D803F07F0590F89C32A1
:103C4C00032B0CD080F89E52294600F07DFC2046B8
:103C5C0000F054FA35B1022384F89C3209E0FFF7E6
:103C6C0015FF06E0012384F89C3202E02046FFF7A2
:103C7C000DFF38BD38B504460D468978284B1970B0
:103C8C0001290ED890F89C32022B0ED0032B21D098
:103C9C002946FFF7FBFE224B19782046FFF79FFDC4
:103CAC0002E02946FFF7F2FE38BD81B141600323E3
:103CBC0080F89C32FFF787FD022803D0204600F0E5
:103CCC001DFAF1E729462046FFF7E0FEECE700F08D
:103CDC0015FAE9E789B1436899421DD0D9B2FFF7CB
:103CEC007EFD0F4B197861602046FFF76CFD0228B2
:103CFC000DD0204600F002FAD6E7022380F89C3261
:103D0C004160FFF76CFD204600F0F8F9CCE729463E
:103D1C002046FFF7BBFEC7E700F0F0F9C4E700BF91
:103D2C002006002008B5CB88012B0AD190F89C32D4
:103D3C00022B09D9032B09D10122011D00F0B2F984
:103D4C0001E0FFF7A3FE08BD5BB213B9FFF79EFEBF
:103D5C00F9E70146002341F8083F012200F0A2F9DF
:103D6C00F1E708B590F89C32013B022B12D8CB88B6
:103D7C00022B0CD10123C360D0F8A4320BB1032366
:103D8C00C360022200F10C0100F08CF908BDFFF7B2
:103D9C007DFEFBE7FFF77AFEF8E708B590F89C325A
:103DAC00013B022B09D84B88012B00D008BD002306
:103DBC00C0F8A43200F0A2F9F8E7FFF767FEF5E7C8
:103DCC0008B50B7803F06003202B05D0402B03D0F3
:103DDC0043B1FFF75BFE03E0D0F8B4329B68984721
:103DEC00002008BD4B78092B1BD8DFE803F0111716
:103DFC001A141A08051A0E0BFFF752FEF0E7FFF71C
:103E0C0012FFEDE7FFF736FFEAE7FFF78BFFE7E777
:103E1C00FFF7A7FFE4E7FFF71BFEE1E7FFF7BDFFA6
:103E2C00DEE7FFF733FEDBE738B505460C460B78CB
:103E3C0003F06003202B06D0402B04D01BB1FFF7FE
:103E4C0025FE002038BD95F89C32013B022B16D87C
:103E5C002379012B0ED8D5F8B4329B68214628461D
:103E6C009847E388002BECD10028EAD1284600F0D3
:103E7C0045F9E6E721462846FFF708FEE1E721462B
:103E8C002846FFF703FEDCE770B505468B880C78F7
:103E9C0004F06004202C07D0DAB2402C04D05CB1C2
:103EAC00FFF7F4FD002405E0D5F8B4329B682846F2
:103EBC0098470024204670BD202C09D04E78012E46
:103ECC0033D0032E0AD0002E55D0FFF7DFFDF1E7DB
:103EDC00D0F8B4329B6898470446EBE790F89C32D4
:103EEC00022B04D0032B11D0FFF7D0FDE2E70AB16F
:103EFC00802A03D12846FFF7C9FDDBE7114600F005
:103F0C00FCFA8021284600F0F8FAD3E74B8823B955
:103F1C001AB1802A01D0CB881BB1284600F0EEF8EC
:103F2C00C8E7114600F0E9FAF7E790F89C32022B4B
:103F3C0004D0032B11D0FFF7A9FDBBE70AB1802AEF
:103F4C0003D12846FFF7A2FDB4E7114600F0D5FADD
:103F5C008021284600F0D1FAACE74B88002BA9D180
:103F6C0012F07F0F03D1284600F0C8F8A2E71146E3
:103F7C0000F0CBFAF7E790F89C02022806D0032851
:103F8C0029D02846FFF782FD344693E70AB1802AF0
:103F9C0013D113F0800F15D102F07F0202EB8202D5
:103FAC00910001F5A8712944043100230B60022211
:103FBC00284600F077F834467CE72846FFF766FD84
:103FCC00344677E702F07F0202EB82029100103157
:103FDC0029440431E9E75BB2002B1FDB02F00F0030
:103FEC0000EB800005EB8000D0F8580120B3002BCB
:103FFC0027DB02F07F0303EB83039C0004F5A8741A
:10400C002C4404340AB1802A24D1002323600222D8
:10401C002146284600F046F834464BE702F00F00E4
:10402C0000EB800005EB800080690028DFD128467A
:10403C00FFF72CFD34463DE72846FFF727FD3446B5
:10404C0038E702F07F0303EB83039C0010342C440D
:10405C000434D7E71146284600F05FFA10B101236B
:10406C002360D4E700232360D1E7D0B170B50D46AF
:10407C0016460446FFF7E2FC431C5B009BB2338000
:10408C002B7003236B70022307E001345A1CD2B24D
:10409C00E8540233DBB20021A95420780028F4D173
:1040AC0070BD704708B513460222C0F89422C36154
:1040BC0003620A46002100F04FFA002008BD08B543
:1040CC0013460A46002100F047FA002008BD08B547
:1040DC0013460322C0F89422C0F85C31C0F860315A
:1040EC000A46002100F040FA002008BD08B513462E
:1040FC000A46002100F038FA002008BD08B5042358
:10410C00C0F8943200231A46194600F025FA002014
:10411C0008BD08B50523C0F8943200231A46194689
:10412C0000F022FA002008BD08B500220F49104803
:10413C00FFF726FB70B90F490D48FFF738FB60B944
:10414C000D490B48FFF7D5FA50B90948FFF736FB74
:10415C0048B908BDFCF7DAF8EDE7FCF7D7F8EFE75C
:10416C00FCF7D4F8F1E7FCF7D1F8F2E72C010020CA
:10417C00240600200C0000201C01002000207047A9
:10418C000020704770B504460D460C4E0146304673
:10419C00FFF7BEFA3046FFF7DBFA094E2822002162
:1041AC00304600F019FA2A6801322146304600F0F8
:1041BC0065FA044B01221A70002070BD2406002001
:1041CC00C8050020F005002010B5064C0022064959
:1041DC002046FFF795FA05492046FFF799FA00208B
:1041EC0010BD00BF2406002028090020E80800208C
:1041FC00094BD3F8B832D3F814320BB10120704705
:10420C0010B5054C0A4601462046FFF779FA2046C0
:10421C00FFF784FA10BD00BF2406002012230B8088
:10422C00004870474801002004230B800048704769
:10423C005C010020002393421ED200B510E00CF16B
:10424C00370C01F813C000014FEA430C0CF1010CC0
:10425C004FF0000E01F80CE00133DBB2934209D2AF
:10426C004FEA107CB0F1204FE9D20CF1300C01F880
:10427C0013C0E8E75DF804FB7047000038B50B4B42
:10428C00D3F8E807D3F8EC47D3F8F037C01800D1CF
:10429C0038BD074D0822A91CFFF7CCFF042205F1FD
:1042AC0012012046FFF7C6FFF2E700BF00F0FF1F28
:1042BC006001002008B51A230B80FFF7DFFF0148CF
:1042CC0008BD00BF6001002008B50A4628B90549A1
:1042DC000548FFF7CAFE034808BD02490248FFF72C
:1042EC00C4FEF8E768090020F847000810B50A4634
:1042FC00034C21460348FFF7B8FE204610BD00BF13
:10430C00680900200048000808B50A4628B9054984
:10431C000548FFF7AAFE034808BD02490248FFF70B
:10432C00A4FEF8E7680900200848000808B50A460A
:10433C0028B905490548FFF798FE034808BD02490E
:10434C000248FFF792FEF8E76809002014480008BD
:10435C00022805D8DFE800F00504020001207047B0
:10436C000220704702680E4B9A4200D0704700B58D
:10437C0083B003F5DA33DA6942F40002DA61DB69FF
:10438C0003F400030193019B002211461420FCF757
:10439C00B5FB1420FCF7EAFB03B05DF804FB00BF8F
:1043AC00005C004008B500F52C71D0F8E802FFF76E
:1043BC001DFA08BD08B501EB810300EBC303D3F86C
:1043CC007C21D0F8E802FFF73EFA08BD08B501EBF6
:1043DC00810300EBC303DA6BD0F8E802FFF779FA3C
:1043EC0008BD08B5D0F8E802FFF71AFB08BD10B5F8
:1043FC0004468368022B09D10121D4F8E802FFF7A7
:10440C00F8FAD4F8E802FFF7CCFA10BDFBF77EFF00
:10441C00F2E7000010B50446D0F8E802FFF7ECFA1A
:10442C00A36923B1024A136943F00603136110BD5B
:10443C0000ED00E008B5D0F8E802FFF7E6FA08BD99
:10444C0010B504461D48C0F8E842C4F8C0021C4B25
:10445C000360082343600223836000238361C361EC
:10446C000362FCF754FD30BB182300221146D4F82C
:10447C00C002FDF759FC582300228021D4F8C00259
:10448C00FDF752FCC02300228121D4F8C002FDF7B5
:10449C004BFC4FF4887300220121D4F8C002FDF7C5
:1044AC0043FC4FF4807300228221D4F8C002FDF744
:1044BC003BFC002010BDFBF729FFD5E7680B002063
:1044CC00005C004008B5D0F8C002FCF7ACFDFFF76B
:1044DC003FFF08BD08B594461A466346D0F8C002A3
:1044EC00FDF7E4FAFFF734FF08BD08B5D0F8C002B9
:1044FC00FDF71EFBFFF72CFF08BD08B5D0F8C00276
:10450C00FDF79BFBFFF724FF08BD08B5D0F8C002F0
:10451C00FDF7CFFBFFF71CFF08BDD0F8C03211F040
:10452C00800F08D101F07F0101EB810103EBC10188
:10453C0091F86A01704701F07F01013101EB8101B3
:10454C0003EBC1018878704708B5D0F8C002FDF7BD
:10455C00AFF9FFF7FDFE08BD08B5D0F8C002FDF7B6
:10456C0044FBFFF7F5FE08BD08B5D0F8C002FDF717
:10457C0011FBFFF7EDFE08BD08B5D0F8C002FDF742
:10458C002BFB08BD00487047540E00207047704745
:10459C0070B50D4E0D4D761BB61006D0002455F897
:1045AC00043B01349847A642F9D1094E094D00F05D
:1045BC00FFF8761BB61006D0002455F8043B0134E6
:1045CC009847A642F9D170BD284800082848000831
:1045DC003048000828480008830730B548D0541EDE
:1045EC00002A3FD00346CAB201E0013C3AD303F89B
:1045FC00012B9D07F9D1032C2DD9CDB245EA052508
:10460C000F2C45EA054536D9A4F1100222F00F0C07
:10461C0003F1200EE6444FEA121C03F1100242E9AA
:10462C00045542E9025510327245F8D10CF10102E1
:10463C0014F00C0F03EB021204F00F0C13D0ACF1BE
:10464C00040323F003030433134442F8045B934242
:10465C00FBD10CF003042CB1CAB21C4403F8012B9F
:10466C009C42FBD130BD64461346002CF4D1F9E7D3
:10467C0003461446BFE71A46A446E0E7AAB1012A4E
:10468C0030B50B46054619D0864605E06FEA0E0C90
:10469C00944415EB0C0F10D013F8014B0EF8014B92
:1046AC00002CF3D1581A013830BD0B4613F8012BEE
:1046BC00002AFBD1581A01387047754600222A701F
:1046CC0013F8012B002AFBD1581A013830BD00BF5A
:1046DC00024B13B1024800F005B87047000000000F
:1046EC00FD460008002301461A46184600F01AB889
:1046FC0038B5084B084D5B1B9C1007D0043B1D4480
:10470C00013C55F804399847002CF9D1BDE83840E4
:10471C0000F054B83448000830480008704700BF17
:10472C00704700BF2DE9F047DFF87CA00646DAF8A9
:10473C00000098460F469146FFF7F0FF1B4B1B6895
:10474C00D3F8484124B365681F2D26DC5EB96B1C79
:10475C000235DAF80000636044F82570FFF7E0FFDB
:10476C000020BDE8F087012304EB8501C1F8889097
:10477C00D4F88821AB401A43022EC4F88821C1F822
:10478C000881E4D1D4F88C211343C4F88C31DEE7D2
:10479C0003F5A674C3F84841D5E7DAF80000FFF733
:1047AC00BFFF4FF0FF30DCE7A805002024480008CD
:1047BC00F8B500BFF8BC08BC9E467047F8B500BF02
:0847CC00F8BC08BC9E467047D2
:1047D40000000000000000000102030406070809AD
:1047E40002030405060708090A0B0C0D0E0F10102E
:1047F400000000005553423243414E00726370344E
:104804003434000043444320436F6E6669670000FC
:1048140043444320496E7465726661636500000019
:0448240080010020EF
:08482800DD4600083101000823
:044830000D0100086E
:104834000024F400010000001000000055360008B8
:10484400133600083D3500080000000067340008F6
:10485400EF340008C134000800000000000000002C
:10486400000000009D34000891340008A9340008B9
:10487400B534000809024300020100C032090400F3
:1048840000010202010005240010010524010001B9
:10489400042402020524060001070582030800100F
:1048A40009040100020A000000070501024000009B
:1048B400070581024000000009024300020100C014
:1048C4003209040000010202010005240010010560
:1048D40024010001042402020524060001070582C4
:1048E4000308001009040100020A00000007050182
:1048F4000200020007058102000200000A0600020D
:10490400000000400100000009074300020104C048
:10491400320904000001020201000524001001050F
:104924002401000104240202052406000107058273
:104934000308001009040100020A00000007050131
:10494400024000000705810240000000D541000834
:10495400894100088D41000891410008294200085E
:1049640035420008F9420008D5420008C142000857
:1049740015430008394300081201000202020040F6
:104984003721690000020102030100000403090445
:104994001A030000000000000000000000000000F6
:1049A4000000000000000000000000000000000003
:1049B400000000006C040020D40400203C0500200A
:1049C40000000000000000000000000000000000E3
:1049D40000000000000000000000000000000000D3
:1049E40000000000000000000000000000000000C3
:1049F40000000000000000000000000000000000B3
:104A040000000000000000000000000000000000A2
:104A14000000000000000000000000000000000092
:104A24000000000000000000000000000000000082
:104A34000000000000000000000000000000000072
:104A44000000000000000000000000000000000062
:104A54000000000000000000010000000000000051
:104A64000E33CDAB34126DE6ECDE05000B00000016
:104A74000000000000000000000000000000000032
:104A84000000000000000000000000000000000022
:104A94000000000000000000000000000000000012
:104AA4000000000000000000000000000000000002
:0C4DD4000000000000000000741000202F
:04000005080005D119
:00000001FF
